:020000040800F2
:10000000C0060020CD0100084B0D0008470D000878
:10001000490D0008D3020008CD0E000800000000C2
:100020000000000000000000000000004F0D00086C
:10003000D5020008000000004D0D0008510D000819
:10004000E7010008E7010008E7010008E7010008F0
:10005000E7010008E7010008E7010008E7010008E0
:10006000E7010008E7010008E7010008E7010008D0
:10007000E7010008E7010008E7010008E7010008C0
:10008000E7010008E7010008E7010008E7010008B0
:10009000E7010008E7010008E7010008E7010008A0
:1000A000E7010008E7010008E7010008E701000890
:1000B000E7010008E7010008E7010008E701000880
:1000C000E7010008E7010008E7010008E701000870
:1000D000E7010008E7010008E7010008E701000860
:1000E000E7010008E7010008E7010008E701000850
:1000F000E7010008E7010008E7010008E701000840
:10010000E7010008E7010008E7010008E70100082F
:10011000E7010008E7010008E7010008E70100081F
:10012000E7010008E7010008E7010008E70100080F
:1001300000F002F800F03AF80AA090E8000C8244BF
:100140008344AAF10107DA4501D100F02FF8AFF29C
:10015000090EBAE80F0013F0010F18BFFB1A43F0A5
:1001600001031847240E0000440E0000103A24BF7B
:1001700078C878C1FAD8520724BF30C830C144BF0C
:1001800004680C607047000000230024002500264E
:10019000103A28BF78C1FBD8520728BF30C148BFEA
:1001A0000B6070471FB51FBD10B510BD00F058F8AB
:1001B0001146FFF7F7FF00F09BFE00F076F803B45E
:1001C000FFF7F2FF03BC00F07DF80000094880470C
:1001D00009480047FEE7FEE7FEE7FEE7FEE7FEE729
:1001E000FEE7FEE7FEE7FEE704480549054A064B41
:1001F00070470000AD0D000831010008C00000206C
:10020000C0060020C0020020C00200204FF0000203
:1002100000B5134694469646203922BFA0E80C50FC
:10022000A0E80C50B1F12001BFF4F7AF090728BFD7
:10023000A0E80C5048BF0CC05DF804EB890028BF53
:1002400040F8042B08BF704748BF20F8022B11F07C
:10025000804F18BF00F8012B7047704770477047F8
:10026000754600F02BF8AE4605006946534620F06F
:100270000700854618B020B5FFF7B6FFBDE820405F
:100280004FF000064FF000074FF000084FF0000B52
:1002900021F00701AC46ACE8C009ACE8C009ACE805
:1002A000C009ACE8C0098D46704710B50446AFF3ED
:1002B00000802046BDE81040FFF781BF004870472E
:1002C0005C00002001491820ABBEFEE726000200BA
:1002D0007047FEE7704700002DE9F84FDFF8C8913E
:1002E000002409F1040A0AF1040B23460F270BF13D
:1002F000040ED1E00125A54006EA0502AA4276D106
:10030000DFF8A8C14E68A6EB0C0866452BD00DDCC3
:10031000032E34D005DC36B3012E19D0022E2FD196
:100320001BE0112E16D0122E2AD119E0B8F5881F25
:1003300019D006DCB8F5803F15D0B8F5801F1FD165
:1003400011E0B8F5001F0ED0B8F5041F18D10AE06F
:10035000CB6815E0CB681B1D12E0CB6808330FE0BB
:10036000CB680C330CE08B682BB1012B4FF00803EA
:1003700003D0456104E0042302E0056100E00023AE
:10038000FF2A01D8064601E000F104064FEA840581
:1003900001D9A5F12005D6F8008007FA05FC28EA66
:1003A0000C0803FA05F548EA0508C6F800804D6810
:1003B000ED0070D53E4DAE6946F00106AE61AD6907
:1003C00024F0030605F0010500953A4D06EB050CF7
:1003D000DCF80850A607360F07FA06F825EA0805E4
:1003E000DFF8D480404503D14FF0000825E052E00B
:1003F000DFF8C880404502D14FF001081DE0DFF86A
:10040000C080404502D14FF0020816E0DFF8B4800A
:10041000404502D14FF003080FE0DFF8AC804045C3
:1004200002D14FF0040808E0DFF8A080404502D177
:100430004FF0050801E04FF0060808FA06F848EA10
:100440000508CCF808804D68D9F80060ED034D46EA
:1004500001D5164300E096432E604D68DAF800603F
:10046000AD03554601D5164300E096432E604D6816
:10047000DBF80060ED025D4601D5164300E09643CF
:100480002E604D68DEF80060AD02754601D516435A
:1004900000E096432E60641C0A681646E2407FF432
:1004A00029AFBDE8F88F00000004014000001110E2
:1004B000001002400000014000080140000C014013
:1004C000001001400014014000180140001C0140D0
:1004D00001488068704700000800002002488168D9
:1004E000027811448160704708000020074810B569
:1004F000016841F010010160032000F05FF80F2057
:1005000000F006F800F024F8002010BD00200240A2
:1005100070B50D4D04464FF47A712878B1FBF0F0B8
:100520000A490968B1FBF0F000F0D6FA48B9102C7E
:1005300007D200222146501E00F020F800206C60F7
:1005400070BD012070BD00000800002014000020D4
:10055000094808B5816941F001018161816901F0B3
:1005600001010091C16941F08051C161C06900F091
:100570008050009008BD000000100240F0B40E4B07
:100580001B680C46C3F30223C3F10705042D00D9F1
:100590000425191D072901D2002300E0DB1E0126D6
:1005A00006FA05F1491E214099409E40761E1640EC
:1005B0003143F0BC00F08BBC0CED00E0064900F0CC
:1005C000070208684FF6FF03184040EA0220034A7A
:1005D00010430860704700000CED00E00000FA05D1
:1005E0002DE9F0470F46050061D0434E306800F01A
:1005F0000700B84209D2306820F007003843306065
:10060000306800F00700B84251D128683B4C8107A0
:1006100012D5400703D5606840F4E0606060287838
:10062000000703D5606840F4605060606068A968A6
:1006300020F0F000084360602878C00728D0686880
:10064000012810D02168022810D0890700292EDA4D
:10065000616821F0030101436160FFF739FF8046C3
:1006600041F288390DE021688903EFE78901EDE760
:10067000FFF72EFFA0EB0801494502D90320BDE892
:10068000F0876068696800F00C00B0EB810FEFD173
:10069000306800F00700B8420BD9306820F007003E
:1006A00038433060306800F00700B84201D00120C4
:1006B000E5E72878400705D56068E96820F4E06040
:1006C000084360602878000706D56068296920F42F
:1006D000605040EAC100606000F038F86168084A84
:1006E000C1F30311515CC840064908600648006820
:1006F000FFF70EFF0020C2E700200240001002407A
:10070000700F0008140000200C0000200448054968
:1007100000684968044AC1F30221515CC84070472F
:100720001400002000100240800F00080448054912
:1007300000684968044AC1F3C221515CC84070474F
:100740001400002000100240800F000812A185B0A4
:100750000FC98DE80F0014A0144A00680490516876
:10076000134801F00C03042B10D0082B0ED1C1F359
:100770008343C9031DF803000AD5516804AAC1F3D5
:100780004041515C0A4A5043B0FBF1F005B070475C
:1007900008494843FAE70000020304050607080970
:1007A0000A0B0C0D0E0F1010010200000010024089
:1007B00000127A0000093D002DE9F84F040070D0C6
:1007C0002078C04DC00749D06868C0F38100012877
:1007D00007D06868C0F38100022809D16868C003A7
:1007E00006D52868800339D560680028E7D035E051
:1007F0006068B0F5803F0BD010B1B0F5A02F11D0DC
:10080000286820F480302860286820F4802002E0E6
:10081000286840F480302860606890B1FFF758FE87
:1008200006460AE0286840F480202860F0E700BF10
:10083000FFF74EFE801B642873D828688003F7D525
:100840000CE0FFF745FE064605E000BFFFF740FE5F
:10085000801B6428F0D828688003F7D420789A4E4B
:1008600080074FF001094FF0000839D5686810F093
:100870000C0F07D06868C0F38100022809D16868AE
:10088000C00306D42868800714D52069012808D140
:1008900010E02069B0B1C6F80090FFF719FE0746D6
:1008A00005E00AE1FFF714FEC01B0228C4D828683F
:1008B0008007F7D52868616920F0F80040EAC10098
:1008C00028600DE0C6F80080FFF702FE074604E04E
:1008D000FFF7FEFDC01B022823D828688007F7D445
:1008E000207800072CD57948A169D9B1C0F80090CB
:1008F000FFF7EEFD074604E0FFF7EAFDC01B022804
:100900000FD8686A8007F7D571484FF4FA5100682C
:10091000B0FBF1F0009000BF0098411E0091FAD2A8
:100920000EE080E0C0F80080FFF7D2FD074604E04B
:10093000FFF7CEFDC01B022875D8686A8007F7D480
:100940002078400760D5E8690027C00008D4E8692E
:1009500040F08050E861E869012700F08050009085
:100960005C480168C90513D40168834641F480716D
:100970000160FFF7ADFD824606E000BFFFF7A8FD6E
:10098000A0EB0A0064284ED8DBF80000C005F5D5BE
:10099000E06801280AD008B1052813D0286A20F0A1
:1009A00001002862286A20F0040002E0286A40F072
:1009B00001002862E06841F2883B98B1FFF788FDAA
:1009C00082460BE0286A40F004002862EEE700BF90
:1009D000FFF77EFDA0EB0A0159455AD8286A800727
:1009E000F6D50CE0FFF774FD824605E0FFF770FDD9
:1009F000A0EB0A0159454CD8286A8007F6D41FB1EC
:100A0000E86920F08050E861E06988B36968C1F363
:100A10008101022944D00228C6F8608004D0FFF783
:100A200057FD044638E034E0FFF752FD074604E086
:100A3000FFF74EFDC01B02282BD828688001F7D491
:100A4000206AB0F5803F05D16868A16820F40030C5
:100A500008436860D4E908010843696821F4741107
:100A600008436860C6F86090FFF732FD044606E070
:100A700025E000BFFFF72CFD001B022809D82868DD
:100A80008001F7D51BE000BFFFF722FD001B022805
:100A900002D90320BDE8F88F28688001F4D40EE065
:100AA0000128F7D06868226A00F48031914204D1AD
:100AB000616A00F47010884201D00120EAE700204A
:100AC000E8E7000000100240000042428004424279
:100AD000140000200070004010B5401EB0F1807F6F
:100AE00001D3012010BD4FF0E02460610F21601799
:100AF00000F0EDF90020A06107202061002010BD6A
:100B000070B5040004D094F83D00002510B106E053
:100B1000012070BD84F83C50204600F023F82420CA
:100B200084F83D002068C16821F40051C16020466E
:100B300000F03EF92068016921F4904101612068CC
:100B4000416921F02A0141612068C16841F40051E6
:100B5000C1602564202084F83D0084F83E00002018
:100B600070BD000030B585B000240094019402945B
:100B7000039400681449884223D11448C16941F4A0
:100B80000031C161C16901F400310491816941F012
:100B90000401816180690E4D00F00400049004207E
:100BA0000090022001900320039069462846FFF739
:100BB00093FB0820CDE90004694628460294FFF71C
:100BC0008BFB05B030BD0000004400400010024027
:100BD000000801402DE9F84F044690F83E009A467F
:100BE00016460D46202853D1FDB1F6B194F83C00CD
:100BF00001284DD0012084F83C00002727642220E2
:100C000084F83E002763FFF763FCA6858146E685EE
:100C1000A0684FF48058404501D1206940B12E466C
:100C20005FF0000584F83C7027E00120BDE8F88FF4
:100C30000026F7E74B46002220212046CDF800A0F1
:100C400000F012F908B10320F0E726B1A068404592
:100C50001BD038B108E020684068C0F3080025F8D0
:100C6000020B07E0206980B12068406800F07F0037
:100C700006F8010BE08D401EE085E08D0028D9D1FB
:100C8000202084F83E000020D0E720684068EFE78D
:100C90000220CBE72DE9F843044690F83D001F46BB
:100CA00016460D4620284CD1C5B1BEB194F83C0083
:100CB000012846D0012084F83C004FF00008C4F819
:100CC0004080212084F83D00FFF702FCA684814685
:100CD000E684A068B0F5805F03D004E00120BDE8A1
:100CE000F883206928B12E465FF0000584F83C8027
:100CF0000EE00026FAE78021204600F0B5F8A0B902
:100D0000AEB116F8010B21684860E08C401EE0840B
:100D1000E08C4B464FF0000200970028EBD14FF0DB
:100D20004001204600F0A0F830B10320D7E735F8A5
:100D3000020BC0F30800E6E7202084F83D00002005
:100D4000CDE70220CBE7FEE7FEE7FEE770477047FE
:100D5000FFF7C4BB30B58FB028216846FFF756FABD
:100D600014210AA8FFF752FA01210804CDE9001066
:100D70000024029402250491CDE90750C000099097
:100D80006846FFF719FD08B172B6FEE70F200A901A
:100D9000CDE90B540D9401210AA80E94FFF720FC15
:100DA000002801D072B6FEE70FB030BD70470000DA
:100DB00070B5044600680169E26821F440511143AE
:100DC00001612169A0680843616908432168CA6814
:100DD00041F20C639A430243CA6020684169A269E8
:100DE00021F44071114341611E492068884202D1BB
:100DF000FFF79CFC01E0FFF789FC00EBC00101EB71
:100E00000012606864218000B2FBF0F3B3FBF1F3E1
:100E10006FF018067343B2FBF0F5B2FBF0F605EB8A
:100E20008305322303EB0515B5FBF1F5B6FBF1F6AF
:100E300005F0F00505EB0615B2FBF0F6B2FBF0F09D
:100E4000B0FBF1F06FF01802504306EB800003EBAB
:100E50000010B0FBF1F0216800F00F00284488601A
:100E600070BD0000003801402DE9F041984617465A
:100E70000E460446069D1DE0681C1BD02DB1FFF7F1
:100E800027FBA0EB0800A84214D92068C16821F410
:100E9000D071C1602068416921F0010141612020C9
:100EA00084F83D0084F83E00002084F83C000320D4
:100EB000BDE8F0812068006836EA000004D0002018
:100EC000B842D9D00020F3E70120F9E7FEE709078F
:100ED000090E002804DB00F1E02080F800147047C0
:100EE00000F00F0000F1E02080F8141D70470000B2
:100EF00008B5FFF7FBFAFFF72DFF1948816941F0AC
:100F000020018161816901F020010091816941F036
:100F1000040181618069134900F0040000901248C7
:100F20000C2201604FF4E131416000218160C16019
:100F3000C0E904128161C161FFF7E2FD08B172B638
:100F4000FEE76423052209490748FFF743FE00280E
:100F5000F7D16423052205490348FFF79BFEF0E71C
:100F60000010024000440040180000200000002053
:100F70000000000000000000010203040607080949
:100F80000000000001020304A80F00080000002078
:100F9000180000006C010008C00F000818000020B5
:100FA000A806000088010008000000000000000002
:100FB0000100000010000000000000000024F40008
:0400000508000131BD
:00000001FF
