:020000040800F2
:10000000C80400204501000817110008131100085A
:100010001511000895060008911200080000000064
:100020000000000000000000000000001B1100089C
:100030009706000800000000191100081D110008B3
:100040005F0100085F0100085F0100085F01000810
:100050005F0100085F0100085F0100085F01000800
:100060005F0100085F0100085F0100085F010008F0
:100070005F0100085F0100085F0100085F010008E0
:100080005F0100085F0100085F0100085F010008D0
:100090005F0100085F0100085F0100085F010008C0
:1000A0005F0100085F0100085F0100085F010008B0
:1000B0005F0100085F0100085F0100085F010008A0
:1000C0005F0100085F0100085F0100085F01000890
:1000D0005F0100085F0100085F0100085F01000880
:1000E0005F0100085F0100085F0100085F01000870
:1000F0005F0100085F0100085F0100085F01000860
:100100005F0100085F0100085F0100085F0100084F
:100110005F0100085F0100085F0100085F0100083F
:100120005F0100085F0100085F0100085F0100082F
:10013000DFF80CD000F0C2F800480047391300087F
:10014000C80400200648804706480047FEE7FEE74F
:10015000FEE7FEE7FEE7FEE7FEE7FEE7FEE7FEE777
:100160007111000831010008D2B201E000F8012B42
:10017000491EFBD270470022F6E710B513460A4627
:1001800004461946FFF7F0FF204610BD10B50022C7
:1001900000E0521C835C8C5CA34201D1002BF8D19F
:1001A000D8B2E1B2401A10BD0FB400B589B00BA8A7
:1001B00000906A4603480A9900F076F809B05DF8A5
:1001C00014FB0000100000202DE9FF5FD2E901A719
:1001D0004FF00008916999461446DDF838B046465C
:1001E00001988847054659EA0B0005D009E0A16946
:1001F000761C019888470546216A284688470028CA
:10020000F5D1681C03D05FEACA7005D015E04FF045
:10021000FF3004B0BDE8F09F2068011D2160D0F8D8
:1002200000800AE05FEACA7001D108F8015BA169A9
:10023000761C7F1E019888470546002F1ADD681C32
:1002400018D0B9F1000F0DD0E81705EBD0604211BE
:1002500020F01F0059F822102A1A01209040014274
:10026000E0D107E0BBF1000FDCD1216A28468847C6
:100270000028D7D0E16901988847BBF1000F07D16A
:10028000002E05DD5FEACA7002D1002188F8001057
:10029000A068B84203DDBBF1000F03D017B16FF0C7
:1002A0000100B6E73046B4E7024B9361024BD361DD
:1002B00000F032B805130008FD020008064C074D97
:1002C00006E0E06840F0010394E807009847103426
:1002D000AC42F6D3FFF730FF4C1500086C15000850
:1002E000094910B508784C1C18B1401E0870205CF4
:1002F00010BD00210720ABBE207010BD0249087858
:10030000421C0A7070470000180000200268114467
:100310001378016018467047D1600449516104495F
:10032000116200211161114600F00AB80D030008A6
:1003300035030008C0B24FF4F05100F097B9000047
:100340002DE9F34F8BB04FF0000801F10C000C4683
:100350004FF0010B46460DF1080A01906269012138
:1003600001989047051E2DD0252D2CD0216A884755
:10037000C0B16269012101989047216A884700282D
:10038000F7D1411E62690198904700E0761CA1698F
:100390000B988847216A88470028F7D1E1690B98B4
:1003A0008847DBE7A1690B9888470746A84201D137
:1003B000761CD3E7E1690B9888477F1C02D1B8F11E
:1003C000000F6FD046E1002762693D46394601982B
:1003D00090472A2804D1626901210198904701259C
:1003E000DFF884926269012101989047A0F1300101
:1003F0000A290AD24F45E5DC07EB870100EB4107EC
:10040000303FDFD445F01005ECE7E90601D46FF08A
:1004100000476C280AD04C2814D0682815D06A28C8
:100420000DD074281CD07A281AD01DE062690121F1
:10043000019890476C2802D045F0040514E045F07F
:1004400002050DE045F020050AE0626901210198EE
:100450009047682802D045F0080505E045F400659E
:100460006269012101989047C4E9015765283DD090
:1004700019DC58287AD00CDC452837D004DC252834
:1004800026D0412831D131E046282FD047282CD121
:100490002CE05B2877D0612828D063287CD06428A2
:1004A00023D15AE0D0E06F2848D008DC66281DD060
:1004B00067281BD0692821D06E2816D127E0702824
:1004C00045D0732868D0752847D078280DD14DE0E5
:1004D000A1690B988847054625283FF469AFE16973
:1004E0000B9888476D1C3FF46AAFB3E023466A4619
:1004F0006FF001000B99AFF300809EE045F04000E3
:100500006060A80723464FF0000236D43EE0E807BB
:100510007FF447AF2068011D21600068290501D5DF
:1005200006701BE7290701D5068017E7A90703D541
:10053000F117C0E9006111E706600FE745F04000E0
:100540006060A80723464FF0080216D41EE040F66C
:100550000E0125EA0100606016E045F04000606091
:10056000A80723464FF00A0207D40FE045F04000E9
:100570006060A80708D5234610226FF001000B9990
:10058000AFF3008059E007E0234610226FF001002E
:100590000B99AFF3008050E04FF000094F464B46F7
:1005A000632802D05B2806D040E0E80601D4012091
:1005B000A06001273AE062690121019890475E2816
:1005C00005D14FF0010962694946019890472169B8
:1005D00039B900210A46534643F82120491C08290D
:1005E000FADBB0B3216969B9C11700EBD1625311CD
:1005F0000AEB830122F01F02821A01200B6890404F
:1006000003430B6062690121019890475D28E8D19E
:10061000B9F1000F09D00020514651F82020D243F3
:1006200041F82020401C0828F7DB02AB2246009747
:100630006FF001000B99FFF7C7FD00280CDA401C92
:1006400008D1BBF1000F05D04FF0FF300DB0BDE871
:10065000F08FFFE74046F9E7E90701D108F101080B
:1006600006444FF0000B79E6CCCCCC0C7F2801D9A6
:10067000002208E0064A02EB5002C007127800D1BF
:10068000120902F00F02012090400840704700005C
:100690000C150008FEE770472DE9F84FDFF8C89108
:1006A000002409F1040A0AF1040B23460F270BF179
:1006B000040ED1E00125A54006EA0502AA4276D142
:1006C000DFF8A8C14E68A6EB0C0866452BD00DDC00
:1006D000032E34D005DC36B3012E19D0022E2FD1D3
:1006E0001BE0112E16D0122E2AD119E0B8F5881F62
:1006F00019D006DCB8F5803F15D0B8F5801F1FD1A2
:1007000011E0B8F5001F0ED0B8F5041F18D10AE0AB
:10071000CB6815E0CB681B1D12E0CB6808330FE0F7
:10072000CB680C330CE08B682BB1012B4FF0080326
:1007300003D0456104E0042302E0056100E00023EA
:10074000FF2A01D8064601E000F104064FEA8405BD
:1007500001D9A5F12005D6F8008007FA05FC28EAA2
:100760000C0803FA05F548EA0508C6F800804D684C
:10077000ED0070D53E4DAE6946F00106AE61AD6943
:1007800024F0030605F0010500953A4D06EB050C33
:10079000DCF80850A607360F07FA06F825EA080520
:1007A000DFF8D480404503D14FF0000825E052E047
:1007B000DFF8C880404502D14FF001081DE0DFF8A6
:1007C000C080404502D14FF0020816E0DFF8B48047
:1007D000404502D14FF003080FE0DFF8AC80404500
:1007E00002D14FF0040808E0DFF8A080404502D1B4
:1007F0004FF0050801E04FF0060808FA06F848EA4D
:100800000508CCF808804D68D9F80060ED034D4626
:1008100001D5164300E096432E604D68DAF800607B
:10082000AD03554601D5164300E096432E604D6852
:10083000DBF80060ED025D4601D5164300E096430B
:100840002E604D68DEF80060AD02754601D5164396
:1008500000E096432E60641C0A681646E2407FF46E
:1008600029AFBDE8F88F000000040140000011101E
:10087000001002400000014000080140000C01404F
:10088000001001400014014000180140001C01400C
:100890000AB1016170470904FBE700000148806864
:1008A000704700000000002002488168027811446F
:1008B0008160704700000020074810B5016841F0D2
:1008C00010010160032000F05FF80F2000F006F82F
:1008D00000F024F8002010BD0020024070B50D4D3E
:1008E00004464FF47A712878B1FBF0F00A490968A0
:1008F000B1FBF0F000F0D6FA48B9102C07D2002274
:100900002146501E00F020F800206C6070BD0120D0
:1009100070BD0000000000200C000020094808B550
:10092000816941F001018161816901F0010100915A
:10093000C16941F08051C161C06900F080500090F0
:1009400008BD000000100240F0B40E4B1B680C46BE
:10095000C3F30223C3F10705042D00D90425191D93
:10096000072901D2002300E0DB1E012606FA05F16B
:10097000491E214099409E40761E16403143F0BCEE
:1009800000F090BC0CED00E0064900F0070208689A
:100990004FF6FF03184040EA0220034A1043086064
:1009A000704700000CED00E00000FA052DE9F0476B
:1009B0000F46050061D0434E306800F00700B84292
:1009C00009D2306820F0070038433060306800F00A
:1009D0000700B84251D128683B4C810712D5400727
:1009E00003D5606840F4E06060602878000703D5B4
:1009F000606840F4605060606068A96820F0F000B2
:100A0000084360602878C00728D06868012810D0A3
:100A10002168022810D0890700292EDA616821F0A8
:100A2000030101436160FFF739FF804641F28839D5
:100A30000DE021688903EFE78901EDE7FFF72EFF5D
:100A4000A0EB0801494502D90320BDE8F0876068A2
:100A5000696800F00C00B0EB810FEFD1306800F056
:100A60000700B8420BD9306820F0070038433060E7
:100A7000306800F00700B84201D00120E5E728788F
:100A8000400705D56068E96820F4E06008436060CD
:100A90002878000706D56068296920F4605040EA8C
:100AA000C100606000F038F86168084AC1F30311C2
:100AB000515CC8400649086006480068FFF70EFF11
:100AC0000020C2E70020024000100240F414000899
:100AD0000C00002004000020044805490068496813
:100AE000044AC1F30221515CC84070470C00002049
:100AF00000100240041500080448054900684968D0
:100B0000044AC1F3C221515CC84070470C00002068
:100B1000001002400415000812A185B00FC98DE82D
:100B20000F0014A0144A006804905168134801F0A3
:100B30000C03042B10D0082B0ED1C1F38343C9033F
:100B40001DF803000AD5516804AAC1F34041515C65
:100B50000A4A5043B0FBF1F005B0704708494843DA
:100B6000FAE7000002030405060708090A0B0C0D4A
:100B70000E0F1010010200000010024000127A0057
:100B800000093D002DE9F84F040070D02078C04DD9
:100B9000C00749D06868C0F38100012807D06868A1
:100BA000C0F38100022809D16868C00306D528680F
:100BB000800339D560680028E7D035E06068B0F57B
:100BC000803F0BD010B1B0F5A02F11D0286820F4D1
:100BD00080302860286820F4802002E0286840F4F3
:100BE00080302860606890B1FFF758FE06460AE042
:100BF000286840F480202860F0E700BFFFF74EFE31
:100C0000801B642873D828688003F7D50CE0FFF7B1
:100C100045FE064605E000BFFFF740FE801B642846
:100C2000F0D828688003F7D420789A4E80074FF0D8
:100C300001094FF0000839D5686810F00C0F07D093
:100C40006868C0F38100022809D16868C00306D42F
:100C50002868800714D52069012808D110E0206990
:100C6000B0B1C6F80090FFF719FE074605E00AE1AB
:100C7000FFF714FEC01B0228C4D828688007F7D5E8
:100C80002868616920F0F80040EAC10028600DE0A2
:100C9000C6F80080FFF702FE074604E0FFF7FEFDFE
:100CA000C01B022823D828688007F7D420780007C3
:100CB0002CD57948A169D9B1C0F80090FFF7EEFDB5
:100CC000074604E0FFF7EAFDC01B02280FD8686A58
:100CD0008007F7D571484FF4FA510068B0FBF1F086
:100CE000009000BF0098411E0091FAD20EE080E013
:100CF000C0F80080FFF7D2FD074604E0FFF7CEFD05
:100D0000C01B022875D8686A8007F7D4207840078E
:100D100060D5E8690027C00008D4E86940F0805039
:100D2000E861E869012700F0805000905C480168A4
:100D3000C90513D40168834641F480710160FFF74F
:100D4000ADFD824606E000BFFFF7A8FDA0EB0A005C
:100D500064284ED8DBF80000C005F5D5E06801280E
:100D60000AD008B1052813D0286A20F001002862B3
:100D7000286A20F0040002E0286A40F0010028629E
:100D8000E06841F2883B98B1FFF788FD82460BE0AE
:100D9000286A40F004002862EEE700BFFFF77EFDFE
:100DA000A0EB0A0159455AD8286A8007F6D50CE00D
:100DB000FFF774FD824605E0FFF770FDA0EB0A0126
:100DC00059454CD8286A8007F6D41FB1E86920F04D
:100DD0008050E861E06988B36968C1F38101022944
:100DE00044D00228C6F8608004D0FFF757FD0446BF
:100DF00038E034E0FFF752FD074604E0FFF74EFD10
:100E0000C01B02282BD828688001F7D4206AB0F5CF
:100E1000803F05D16868A16820F40030084368600D
:100E2000D4E908010843696821F474110843686033
:100E3000C6F86090FFF732FD044606E025E000BFEB
:100E4000FFF72CFD001B022809D828688001F7D580
:100E50001BE000BFFFF722FD001B022802D9032080
:100E6000BDE8F88F28688001F4D40EE00128F7D09F
:100E70006868226A00F48031914204D1616A00F40A
:100E80007010884201D00120EAE70020E8E7000066
:100E90000010024000004242800442420C00002048
:100EA0000070004010B5401EB0F1807F01D30120DA
:100EB00010BD4FF0E02460610F21601700F0F2F9DF
:100EC0000020A06107202061002010BD70B5040043
:100ED00004D094F83D00002510B106E0012070BD5B
:100EE00084F83C50204600F023F8242084F83D008C
:100EF0002068C16821F40051C160204600F03AF931
:100F00002068016921F4904101612068416921F064
:100F10002A0141612068C16841F40051C160256423
:100F2000202084F83D0084F83E00002070BD0000C1
:100F300030B585B0002400940194029403940068B5
:100F40001449884224D11448816941F48041816167
:100F5000816901F480410491816941F0040181615A
:100F600080690E4D00F0040004904FF40070009072
:100F7000022001900320039069462846FFF78CFB6E
:100F80002815CDE90004694628460294FFF784FB42
:100F900005B030BD0038014000100240000801409B
:100FA0002DE9F84F044690F83E009A4616460D4645
:100FB000202853D1FDB1F6B194F83C0001284DD062
:100FC000012084F83C0000272764222084F83E009A
:100FD0002763FFF763FCA6858146E685A0684FF48A
:100FE0008058404501D1206940B12E465FF0000590
:100FF00084F83C7027E00120BDE8F88F0026F7E771
:101000004B46002220212046CDF800A000F00EF92A
:1010100008B10320F0E726B1A06840451BD038B1E5
:1010200008E020684068C0F3080025F8020B07E0DC
:10103000206980B12068406800F07F0006F8010B4D
:10104000E08D401EE085E08D0028D9D1202084F875
:101050003E000020D0E720684068EFE70220CBE7A1
:101060002DE9F843044690F83D001F4616460D460C
:1010700020284CD1C5B1BEB194F83C00012846D01F
:10108000012084F83C004FF00008C4F84080212083
:1010900084F83D00FFF702FCA6848146E684A06840
:1010A000B0F5805F03D004E00120BDE8F88320693B
:1010B00028B12E465FF0000584F83C800EE0002643
:1010C000FAE78021204600F0B1F8A0B9AEB116F8D9
:1010D000010B21684860E08C401EE084E08C4B46A8
:1010E0004FF0000200970028EBD14FF0400120465E
:1010F00000F09CF830B10320D7E735F8020BC0F3BD
:101100000800E6E7202084F83D000020CDE702201B
:10111000CBE7FEE7FEE7FEE770477047FFF7C4BB8B
:1011200010B590B028216846FFF725F814210AA8C9
:10113000FFF721F8022000900120049010200024E5
:10114000059007946846FFF71DFD08B172B6FEE7EB
:101150000F20CDE90A040C940D9400210AA80E94E6
:10116000FFF724FC002801D072B6FEE710B010BDD6
:101170007047000070B5044600680169E26821F418
:101180004051114301612169A06808436169084326
:101190002168CA6841F20C639A430243CA6020681E
:1011A0004169A26921F44071114341611E492068DF
:1011B000884202D1FFF7A0FC01E0FFF78DFC00EBB5
:1011C000C00101EB0012606864218000B2FBF0F303
:1011D000B3FBF1F36FF018067343B2FBF0F5B2FB0B
:1011E000F0F605EB8305322303EB0515B5FBF1F5AE
:1011F000B6FBF1F605F0F00505EB0615B2FBF0F6CF
:10120000B2FBF0F0B0FBF1F06FF01802504306EBC8
:10121000800003EB0010B0FBF1F0216800F00F003C
:101220002844886070BD0000003801402DE9F0417D
:10123000984617460E460446069D1DE0681C1BD0C6
:101240002DB1FFF72BFBA0EB0800A84214D92068B2
:10125000C16821F4D071C1602068416921F00101A9
:101260004161202084F83D0084F83E00002084F88D
:101270003C000320BDE8F0812068006836EA0000E9
:1012800004D00020B842D9D00020F3E70120F9E7CC
:10129000FEE70000014A024900F023B821130008CC
:1012A000140000200907090E002804DB00F1E020EB
:1012B00080F80014704700F00F0000F1E02080F883
:1012C000141D704702E008C8121F08C1002AFAD195
:1012D00070477047002001E001C1121F002AFBD1B6
:1012E00070472DE9F04116460F460446002503E0FD
:1012F0003946B047641C6D1C20780028F8D1284678
:10130000BDE8F08108B54FF0FF330122694603487C
:10131000FFF746FE9DF8000008BD00001C000020FD
:1013200013B54FF0FF33012269460248FFF798FEDC
:1013300000981CBD1C00002086B0FFF7BDFAFFF727
:10134000EFFE0024344800940194029403948169D0
:1013500041F004018161816901F004010491816916
:1013600041F01001816180692C4E00F010004FF4B3
:1013700080550490002229463046FFF789FA012063
:101380000095CDE901040220039069463046FFF73D
:1013900083F9244A224810604FF4E130C2E9010485
:1013A0000C20D460C2E9044094611046D461FFF778
:1013B0008DFD08B172B6FEE71BA0FFF76BFF24A0FE
:1013C000FFF768FF29A0FFF765FF2FA013E015497D
:1013D00034A04431FEF7E8FE0128F8D1114832A1CB
:1013E0004430FEF7D3FE48B10E4831A14430FEF739
:1013F000CDFE40B130A0FFF74DFFE8E737A0FFF783
:1014000049FF012203E038A0FFF744FF00222946EC
:101410003046FFF73DFADAE70010024000100140C5
:10142000003801401C0000202F2A2A2A2A2A2A2AB2
:101430002A2A4C454420434F4E54524F4C20444599
:101440004D4F2A2A2A2A2A2A2A2A2A2A2A0A000028
:101450006F70656E2D2D2D2D2D2D2D2D2D2D2D2DBE
:101460006F70656E20204C44320A0000636C6F730D
:10147000652D2D2D2D2D2D2D2D2D2D2D636C6F7367
:101480006520204C44320A00506C65617365206908
:101490006E70757420796F75722063686F6963650B
:1014A000A3BA0A00257300006F70656E000000008B
:1014B000636C6F7365000000496E7075742065720F
:1014C000726F722C506C6561736520696E707574F3
:1014D00020616761696E3A0A000000006F70656EF6
:1014E000204C4432210A0000636C6F7365204C4429
:1014F00032210A0000000000000000000102030485
:10150000060708090000000001020304DDDDDDDD3F
:10151000DCBBBBDDDDDDDDDDDDDDDDDD9888888884
:10152000888888887777777777888888855555562B
:101530006666666666666666666888888333333282
:1015400022222222222222222228888D6C150008A3
:10155000000000201C000000C412000888150008CC
:101560001C000020AC040000D412000801000000A0
:1015700010000000000000000024F4000000000043
:08158000000000000000000063
:0400000508000131BD
:00000001FF
