:020000040800F2
:1000000008080020E50100086B1F00087D1E00089D
:10001000691F0008F10C0008F12200080000000030
:100020000000000000000000000000006F1F00083A
:10003000F30C0008000000006D1F0008711F00088D
:10004000FF010008FF010008FF010008FF01000890
:10005000FF010008FF010008FF010008FF01000880
:10006000FF010008FF010008FF010008FF01000870
:10007000FF010008FF010008FF010008FF01000860
:10008000FF010008FF010008FF010008FF01000850
:10009000FF010008FF010008FF010008FF01000840
:1000A000FF010008FF010008FF010008FF01000830
:1000B000D11F0008FF010008FF010008FF01000830
:1000C000FF010008FF010008FF010008FF01000810
:1000D000FF010008FF010008E5220008FF010008F9
:1000E000FF010008FF010008FF010008FF010008F0
:1000F000FF010008FF010008FF010008FF010008E0
:10010000FF010008FF010008FF010008FF010008CF
:10011000FF010008FF010008FF010008FF010008BF
:10012000FF010008FF010008FF010008FF010008AF
:1001300000F002F800F047F80AA090E8000C8244B2
:100140008344AAF10107DA4501D100F03CF8AFF28F
:10015000090EBAE80F0013F0010F18BFFB1A43F0A5
:1001600001031847E022000000230000103A24BFDA
:1001700078C878C1FAD8520724BF30C830C144BF0C
:1001800004680C607047000000230024002500264E
:10019000103A28BF78C1FBD8520728BF30C148BFEA
:1001A0000B607047642900F07D80002070471FB508
:1001B0009DE8030000F08EFB00F080F91FBD10B534
:1001C00000F0E5F910BD00F048FA1146FFF7EFFF27
:1001D00002F0B4F800F04CFB03B4FFF7F0FF03BCEF
:1001E00000F0EAFC0948804709480047FEE7FEE7BF
:1001F000FEE7FEE7FEE7FEE7FEE7FEE7FEE7FEE7D7
:1002000004480549054A064B70470000CD1F000809
:10021000310100080802002008080020080400201E
:10022000080400200FB4044910B503AA029800F096
:1002300017F910BC5DF814FB000100202DE9F04116
:100240000E460446002020622046E168884730B30D
:10025000252805D0D4E901219047206A401CF2E707
:10026000E168204600278847050018D0A5F1410025
:10027000192802D820354FF4006732462946204617
:100280002760FFF78FFF40B1012804D0F61D26F04C
:1002900007060836D8E7361DD6E72846DAE7206A8B
:1002A000BDE8F0812DE9F04106460024106875296B
:1002B000314616A510D0AFF30080002802DA404284
:1002C00013A507E031688A0701D512A502E04907A6
:1002D00004D511A5012401E0AFF3008000210A221A
:1002E00006F1240709E0B0FBF2FCB0FBF2F302FBDD
:1002F0001C00303078541846491C0028F3D123469E
:100300002A463046BDE8F04100F051B80000000038
:100310002D0000002B0000002000000010B5431C41
:1003200002E010F8011B71B18107FAD14FF00132E0
:1003300002C88C1A8C4314EAC211F9D0C01A0A06FA
:1003400003D0C01E10BDC01A10BD0A0401D0801E0B
:1003500010BD0902FCD0401E10BD4FF0000200B5D8
:10036000134694469646203922BFA0E80C50A0E8D8
:100370000C50B1F12001BFF4F7AF090728BFA0E886
:100380000C5048BF0CC05DF804EB890028BF40F852
:10039000042B08BF704748BF20F8022B11F0804F94
:1003A00018BF00F8012B70477047704770472DE960
:1003B000F0470D4699469246044600F1240801682C
:1003C000880604D5E06921F01001216000E00120D9
:1003D000A84201DD471B00E00027A1697A1902EB62
:1003E0000900081AA0612078C00602D42046AFF3A5
:1003F0000080002608E0D4E901211AF806009047A1
:10040000206A401C761C20624E45F4DB2078C00632
:100410000AD52046AFF3008006E0D4E90121302060
:100420009047206A401C2062381EA7F10107F4DCC7
:1004300007E0D4E9012118F805009047206A401C24
:100440002062281EA5F10105F3DC2046AFF30080F1
:100450002078000602D50220BDE8F0870120FBE7E6
:10046000074B70B50D467B4400F011F80446284652
:1004700000F020F810B14FF0FF3070BD204670BD85
:10048000AB1E000001694A1C02610878704700B584
:100490008FB0CDE901310021059105497944CDE9BD
:1004A000031011466846FFF7C9FE0FB000BD0000FB
:1004B000E5FFFFFF007B00F08000704710B5424869
:1004C0005421FFF74AFF41485421FFF746FF4048B7
:1004D0005421FFF742FF3F493B483C4A3F4B0860ED
:1004E0003D490A603A491960531C0365481C106570
:1004F000012008653B48344A39A1784400F01CF9D2
:1005000020B9384878440A3800F0BBF937482F4AF8
:1005100035A1784400F010F920B9344878440A38FD
:1005200000F0AFF932482A4A2FA1784400F004F9CC
:1005300020B92F4878440A3800F0A3F94023224814
:10054000DC000021224600F0D4F820B12548784490
:10055000543800F096F91D4822464023002100F04F
:10056000C8F820B121487844543800F08AF9184876
:1005700022461023002100F0BCF8002806D01C48B9
:100580007844BDE81040563800F07BB910BD1048E3
:1005900070B5006D20F001040B4800F043F90B48E2
:1005A00000F040F90A4800F03DF909E0206D20F024
:1005B0000105204600F036F9204600F073F82C467D
:1005C000002CF3D170BD0000AC0000200001002021
:1005D0005401002014000020180000201C000020FE
:1005E000720000003A1F000077000000261F000084
:1005F000121F00000EB5CDE90001FFF78FFE02903B
:1006000069460120ABBE0EBD08B5694600900220C8
:10061000ABBE08BD1FB58DE8070069460520ABBE1F
:1006200004B010BD1FB58DE80F0069460620ABBEB3
:10063000F6E708B5694600900920ABBE08BD1CB5B9
:10064000CDE9000169460A20ABBE1CBD704708B564
:10065000694600900C20ABBE08BD754600F018F945
:10066000AE4605006946534620F00700854618B09F
:1006700020B5FFF7C5FDBDE820404FF000064FF064
:1006800000074FF000084FF0000B21F00701AC46C7
:10069000ACE8C009ACE8C009ACE8C009ACE8C009E6
:1006A0008D46704770B50446051F00F0F7F80068E6
:1006B000002C14BF446870BD002C18BFAC423CBF76
:1006C00020466468F8D301680A18AA4218BF45603A
:1006D00003D12A6805461144016028684119A142E6
:1006E0001CBF6C6070BD6168696021680844286047
:1006F00070BD70B5C468A50713D0650211D4B2F5FA
:10070000807F09D0B2F5007F06D0B2F5806F08D1A6
:10071000012300F1240106E05D1E6FF07F46B54223
:1007200001D3012070BD0161C361416024F4706197
:100730001143C160002070BD2DE9F0410C46074611
:100740001646104600F06EF82078611C61280AD029
:10075000722802D077283CD102E00125002405E070
:100760000225042402E0082448F2020511F8010BD6
:100770002B2806D0622809D011F8010C74280AD061
:100780000BE045F0030544F00204EFE745F00405F3
:1007900044F00104EAE744F0100438462146FFF72C
:1007A00029FF411C15D00021316171604FF40071A7
:1007B000F560F1617061200704D530460222002106
:1007C00000F0E6F8306D40F0010030653046BDE8DD
:1007D000F0810020FBE72DE9F0410D460646104C64
:1007E000206DC10704D0410804D020F00104F7E7D0
:1007F00022460EE0542000F09CF807000ED0206D39
:1008000047F001010843542120653846FFF7A5FD54
:100810003A4629463046BDE8F0418DE70020D6E74C
:10082000AC0000202DE9F04704464FF000094FF0DE
:10083000FF37C568D4E90486A80707D0204600F032
:1008400057F93046FFF7E0FE002802DA3846BDE8E7
:10085000F087280502D54046FFF724FF4C212046AB
:10086000FFF77BFD206D20F0010020654846EEE794
:1008700010B50446AFF300802046BDE81040FFF7F6
:10088000ABBC10B500F07EF9BDE8104000F074B9C3
:1008900000487047A80100207047000000487047DA
:1008A000B0010020704770477047704738B5044664
:1008B0000A4600206946AFF30080002808BF38BD13
:1008C00002460099204600F084F9012038BD01203D
:1008D00000F0D3B9F8B5AFF30080054600200C4610
:1008E000102000BF0646A819A0420DD9324669461D
:1008F0000020AFF30080070008BF00F0BEF90098A9
:10090000A04218BF0546C419FFF7C8FF0560074697
:10091000F01D20F007004619284600F053F9B442B4
:1009200008BFF8BDA21B31463868BDE8F84000F0AA
:1009300050B970B50646FFF7B1FF056806F10B0028
:1009400020F00704B4429CBF002070BD2B466A68AB
:10095000BAB11068A04210D304F1080188423CBF2C
:100960005068586007D35168101941601168091B1D
:10097000016058601460101D70BD13465268002A53
:10098000E7D121462846FFF791FF0028DED170BD50
:100990002DE9F041044616460D464769007B800765
:1009A0002ED03846FFF745FE50BB3EB3012E02D095
:1009B000022E25D104E0204600F025F905441DE073
:1009C0003846FFF744FEE168002841F01001E1607D
:1009D00005DA204600F058F80120BDE8F081C9038F
:1009E0000BD56268E16A914200D81146A2691144B0
:1009F0002269891A814200DD08460544002D01DA8A
:100A00000220EAE7E16A6068E268814206D2910367
:100A1000E06203D522F4003141F01002A6690027FC
:100A2000AE4213DCE16A814201D90B4600E0034685
:100A300003EB060C2369ACEB030CAC4506DD8142ED
:100A400001D98C4600E084469C4505D1A76027600B
:100A500042F02000A5620DE0AD1BE669AE1B8142AD
:100A6000A66000D90846C01A281A2060581960608C
:100A700022F0200003490840E060002084F848701C
:100A8000ABE70000BFCFD7FFC16821F4001141F0F0
:100A90008001C16000218160016070472DE9F0474D
:100AA000814614460E464FF0FF383248D5685769E4
:100AB000054209D03846A169FFF7C1FD002811DBC6
:100AC0002C48C0430540E5602B463246494638462F
:100AD000FFF7A0FDA16920F00042B21A11440028DE
:100AE000A16103D02046FFF7CFFF4046BDE8F08765
:100AF00070B504460569C06A6168884200D8084636
:100B0000E16821F42011E160C90312D5A84208D0A0
:100B10002246411B2846FFF7C1FF10B14FF0FF30BE
:100B200070BD0020E562C4E90150E06820F4803027
:100B3000E060002070BD10B50446C06820F02000C1
:100B4000E060A16AA06988420DD02046FFF7D0FF7F
:100B5000E06820F4405040F01000E060A06AA0611E
:100B60002069E062606044F24001E0688843E06030
:100B700010BD000010000200002801D000F01CB8D9
:100B80007047000010B5014602A000F05DF801209A
:100B900010BD000053494752545245443A20526513
:100BA0006469726563743A2063616E2774206F70A4
:100BB000656E3A200000000001491820ABBEFEE738
:100BC0002600020000210160C0E9011070471020DA
:100BD0007047034640688C46002818BF88423CBFD7
:100BE00003464068F8D318681844884207D00CF1CF
:100BF000030020F00700001D411A521A0146081D8B
:100C00000A60FFF74FBD10B50146C268900703D0D8
:100C1000900607D5886A0AE000F03EF801210160DD
:100C2000881E10BD8B69486818440B69C01A91F87A
:100C300048301BB191F84910401A10BD1103FCD582
:100C40000028FADD401E10BD70B505460C460A208E
:100C500000E06D1C00F018F835B128780028F8D1B4
:100C600002E0641C00F010F814B120780028F8D1DC
:100C7000BDE870400A2000F007B810B500F010F889
:100C8000BDE81040FFF778BF08B569468DF8000051
:100C90000320ABBE08BD000000487047A80100203B
:100CA00010B5012805D0002103A0FFF7CDFF0120DA
:100CB00010BD09A1F8E7000053494752544D454D76
:100CC0003A204F7574206F662068656170206D65ED
:100CD0006D6F7279000000003A2048656170206DE8
:100CE000656D6F727920636F7272757074656400E0
:100CF000FEE7704710B590F821100022022905D0B8
:100D00000421816380F82020012010BD01680B6858
:100D100023F00E030B6001680B6823F001030B60E6
:100D200090F84030C46B012101FA03F3636080F84E
:100D3000211080F82020104610BD00002DE9F05F42
:100D400090F821100024022903D00421816301249A
:100D500085E001680A6822F00E020A6001680A68EC
:100D600022F001020A603F4E3E4FB215DFF8F4C098
:100D7000DFF8F090DFF8ECA0DFF8E8B0DFF8E4E0AF
:100D80000168783F13011502ACF1640CA9F1500918
:100D9000AAF13C0AABF1280BAEF1140E4FF4801807
:100DA000B14227D9B9420ED0614512D049451DD074
:100DB000514518D0594518D0714501D1424615E02A
:100DC000294EB14201D1012210E0274E1436B14222
:100DD00001D110220AE0244E2836B14206D0224A20
:100DE0003C32914201D11A4600E02A461E49091FB1
:100DF0000A602BE0B94213D0614517D0494522D093
:100E000051451DD059451DD0714501D142461AE0CA
:100E1000B14202D14FF0807215E0134EB14201D1C0
:100E2000012210E0104E1436B14201D110220AE026
:100E30000D4E2836B14206D00B4A3C32914201D1C8
:100E40001A4600E02A46074980394A60012180F8A5
:100E50002110002180F82010416B01B18847204605
:100E6000BDE8F09F800002400804024070B50446CF
:100E700000F014F90546601C02D0044800780444D0
:100E800000F00CF9401BA042FAD370BD0400002012
:100E90002DE9F84FDFF8C891002409F1040A0AF19E
:100EA000040B23460F270BF1040ED1E00125A540CA
:100EB00006EA0502AA4276D1DFF8A8C14E68A6EB81
:100EC0000C0866452BD00DDC032E34D005DC36B380
:100ED000012E19D0022E2FD11BE0112E16D0122E6A
:100EE0002AD119E0B8F5881F19D006DCB8F5803F83
:100EF00015D0B8F5801F1FD111E0B8F5001F0ED036
:100F0000B8F5041F18D10AE0CB6815E0CB681B1DAB
:100F100012E0CB6808330FE0CB680C330CE08B6831
:100F20002BB1012B4FF0080303D0456104E00423EB
:100F300002E0056100E00023FF2A01D8064601E037
:100F400000F104064FEA840501D9A5F12005D6F881
:100F5000008007FA05FC28EA0C0803FA05F548EAC0
:100F60000508C6F800804D68ED0070D53E4DAE69AD
:100F700046F00106AE61AD6924F0030605F00105F7
:100F800000953A4D06EB050CDCF80850A607360F25
:100F900007FA06F825EA0805DFF8D480404503D1B2
:100FA0004FF0000825E052E0DFF8C880404502D14C
:100FB0004FF001081DE0DFF8C080404502D14FF03E
:100FC000020816E0DFF8B480404502D14FF0030874
:100FD0000FE0DFF8AC80404502D14FF0040808E094
:100FE000DFF8A080404502D14FF0050801E04FF046
:100FF000060808FA06F848EA0508CCF808804D68A3
:10100000D9F80060ED034D4601D5164300E0964344
:101010002E604D68DAF80060AD03554601D51643E1
:1010200000E096432E604D68DBF80060ED025D46FF
:1010300001D5164300E096432E604D68DEF800604F
:10104000AD02754601D5164300E096432E60641C40
:101050000A681646E2407FF429AFBDE8F88F000029
:101060000004014000001110001002400000014087
:1010700000080140000C0140001001400014014034
:1010800000180140001C01408068084000D0012089
:1010900070470AB1016170470904FBE701488068A5
:1010A0007047000004000020024881680278114463
:1010B0008160704704000020074810B5016841F0C6
:1010C00010010160032000F06DF80F2000F006F819
:1010D00000F024F8002010BD0020024070B50D4D36
:1010E00004464FF47A712878B1FBF0F00A49096898
:1010F000B1FBF0F000F0E4FA48B9102C07D200225E
:101100002146501E00F02EF800206C6070BD0120BA
:1011100070BD00000400002010000020094808B540
:10112000816941F001018161816901F00101009152
:10113000C16941F08051C161C06900F080500090E8
:1011400008BD000000100240002809DB00F01F026B
:10115000012191404009800000F1E020C0F8001119
:1011600070470000F0B40E4B1B680C46C3F302231B
:10117000C3F10705042D00D90425191D072901D243
:10118000002300E0DB1E012606FA05F1491E21407E
:1011900099409E40761E16403143F0BC01F0A9B83C
:1011A0000CED00E0064900F0070208684FF6FF0367
:1011B000184040EA0220034A1043086070470000CC
:1011C0000CED00E00000FA052DE9F0470F460500A0
:1011D00061D0434E306800F00700B84209D2306851
:1011E00020F0070038433060306800F00700B84254
:1011F00051D128683B4C810712D5400703D5606860
:1012000040F4E06060602878000703D5606840F42F
:10121000605060606068A96820F0F000084360607A
:101220002878C00728D06868012810D021680228D3
:1012300010D0890700292EDA616821F003010143EB
:101240006160FFF72BFF804641F288390DE021688D
:101250008903EFE78901EDE7FFF720FFA0EB080125
:10126000494502D90320BDE8F0876068696800F04D
:101270000C00B0EB810FEFD1306800F00700B842EE
:101280000BD9306820F0070038433060306800F038
:101290000700B84201D00120E5E72878400705D5CE
:1012A0006068E96820F4E06008436060287800071F
:1012B00006D56068296920F4605040EAC10060608A
:1012C00000F038F86168084AC1F30311515CC84066
:1012D0000649086006480068FFF700FF0020C2E7E3
:1012E00000200240001002402024000810000020CE
:1012F000080000200448054900684968044AC1F311
:101300000221515CC84070471000002000100240CC
:10131000302400080448054900684968044AC1F3BC
:10132000C221515CC84070471000002000100240EC
:101330003024000812A185B00FC98DE80F0014A059
:10134000144A006804905168134801F00C03042B00
:1013500010D0082B0ED1C1F38343C9031DF803003D
:101360000AD5516804AAC1F34041515C0A4A50436E
:10137000B0FBF1F005B0704708494843FAE70000B8
:1013800002030405060708090A0B0C0D0E0F1010C6
:10139000010200000010024000127A0000093D0026
:1013A0002DE9F84F040070D02078C04DC00749D017
:1013B0006868C0F38100012807D06868C0F3810025
:1013C000022809D16868C00306D52868800339D58A
:1013D00060680028E7D035E06068B0F5803F0BD04A
:1013E00010B1B0F5A02F11D0286820F4803028600B
:1013F000286820F4802002E0286840F480302860CB
:10140000606890B1FFF74AFE06460AE0286840F49B
:1014100080202860F0E700BFFFF740FE801B6428B3
:1014200073D828688003F7D50CE0FFF737FE06462F
:1014300005E000BFFFF732FE801B6428F0D8286863
:101440008003F7D420789A4E80074FF001094FF0BF
:10145000000839D5686810F00C0F07D06868C0F331
:101460008100022809D16868C00306D42868800773
:1014700014D52069012808D110E02069B0B1C6F860
:101480000090FFF70BFE074605E00AE1FFF706FEB6
:10149000C01B0228C4D828688007F7D5286861696E
:1014A00020F0F80040EAC10028600DE0C6F8008096
:1014B000FFF7F4FD074604E0FFF7F0FDC01B02282C
:1014C00023D828688007F7D4207800072CD57948DE
:1014D000A169D9B1C0F80090FFF7E0FD074604E02C
:1014E000FFF7DCFDC01B02280FD8686A8007F7D51C
:1014F00071484FF4FA510068B0FBF1F0009000BF62
:101500000098411E0091FAD20EE080E0C0F8008001
:10151000FFF7C4FD074604E0FFF7C0FDC01B02282B
:1015200075D8686A8007F7D42078400760D5E869E5
:101530000027C00008D4E86940F08050E861E869FD
:10154000012700F0805000905C480168C90513D461
:101550000168834641F480710160FFF79FFD824678
:1015600006E000BFFFF79AFDA0EB0A0064284ED802
:10157000DBF80000C005F5D5E06801280AD008B105
:10158000052813D0286A20F001002862286A20F07C
:10159000040002E0286A40F001002862E06841F29D
:1015A000883B98B1FFF77AFD82460BE0286A40F04D
:1015B00004002862EEE700BFFFF770FDA0EB0A0110
:1015C00059455AD8286A8007F6D50CE0FFF766FD22
:1015D000824605E0FFF762FDA0EB0A0159454CD8B1
:1015E000286A8007F6D41FB1E86920F08050E861CE
:1015F000E06988B36968C1F38101022944D00228F7
:10160000C6F8608004D0FFF749FD044638E034E0B6
:10161000FFF744FD074604E0FFF740FDC01B02282A
:101620002BD828688001F7D4206AB0F5803F05D117
:101630006868A16820F4003008436860D4E90801B4
:101640000843696821F4741108436860C6F8609023
:10165000FFF724FD044606E025E000BFFFF71EFD6E
:10166000001B022809D828688001F7D51BE000BFBD
:10167000FFF714FD001B022802D90320BDE8F88FF4
:1016800028688001F4D40EE00128F7D06868226A47
:1016900000F48031914204D1616A00F470108842F4
:1016A00001D00120EAE70020E8E700000010024036
:1016B00000004242800442421000002000700040BE
:1016C00010B5401EB0F1807F01D3012010BD4FF056
:1016D000E02460610F21601700F00BFE0020A06184
:1016E00007202061002010BD7047704770B590F84A
:1016F0003C20012A2CD0012480F83C40022280F8B2
:101700003D2003685A689D6822F070060A683243DB
:101710005A60104B02689A420ED00F4B9A420BD07F
:10172000B2F1804F08D00D4B9A4205D00C4B9A4233
:1017300002D00C4B9A4204D1496825F0800319432A
:10174000916080F83D40002180F83C10084670BD53
:10175000022070BD002C0140003401400004004014
:1017600000080040000C004010B5040003D094F8BD
:101770003D0010B107E0012010BD002084F83C00BE
:10178000204600F01FF8022084F83D00211D20684B
:1017900000F024FC012084F8460084F83E0084F820
:1017A0003F0084F8400084F8410084F8420084F847
:1017B000430084F8440084F8450084F83D0000208C
:1017C00010BD000000B585B000210091019102918B
:1017D00003910068B0F1804F1ED11048C16941F0FB
:1017E0000101C161C16901F001010491816941F008
:1017F000040181618069694600F0040004900120C1
:1018000000900748FFF744FB002211461C20FFF719
:10181000A9FC1C20FFF798FC05B000BD0010024099
:101820000008014090F83D10012901D001207047C7
:10183000022180F83D1000680E4988420ED00E4902
:1018400088420BD0B0F1804F08D00C49884205D0B7
:101850000B49884202D00B49884204D1816801F0CB
:101860000701062903D0016841F001010160002051
:1018700070470000002C014000340140000400408B
:1018800000080040000C004070B5044690F83C0091
:10189000012817D0012584F83C50022084F83D002F
:1018A0002068826822F0770222F47F428260086812
:1018B000502830D00DDC20284DD005DC98B31028FE
:1018C0003BD148E0022070BD302844D0402834D1BC
:1018D00039E0602828D0702806D0B0F5805F2CD081
:1018E000B0F5005F29D10AE0CB68D1E90121206879
:1018F00000F0BAFB2068816841F0770109E0CB680D
:10190000D1E90121206800F0AFFB2068816841F433
:101910008041816011E0CA684968206800F0B6FB28
:101920005021206807E016E0CA684968206800F086
:10193000BEFB6021206800F0A1FB84F83D50002030
:1019400084F83C0070BDCA684968206800F09EFBBE
:1019500040212068EFE7226801461046EBE7704718
:1019600070B50446006801694FF00005C943890756
:1019700015D4C168C943890711D4E91E016101204A
:101980002077206880698007204602D0FFF7E7FFB4
:1019900004E000F098F8204600F096F825772068DB
:1019A0000169C943490717D4C168C943490713D41A
:1019B0006FF004010161022020772068806910F433
:1019C000407F204602D0FFF7CAFF04E000F07BF81A
:1019D000204600F079F8257720680169C943090796
:1019E00016D4C168C943090712D46FF00801016118
:1019F000042020772068C0698007204602D0FFF7C6
:101A0000AEFF04E000F05FF8204600F05DF82577B7
:101A100020680169C943C90617D4C168C943C9060A
:101A200013D46FF010010161082020772068C0698D
:101A300010F4407F204602D0FFF791FF04E000F051
:101A400042F8204600F040F8257720680169C94334
:101A5000C90708D1C168C943C90704D1891E0161FA
:101A6000204600F032F820680169C943090609D40C
:101A7000C168C943090605D46FF0800101612046A1
:101A8000FFF732FE20680169C943490609D4C168DD
:101A9000C943490605D46FF040010161204600F0BA
:101AA00015F820680169C94389060BD4C168C94388
:101AB000890607D46FF0200101612046BDE870401F
:101AC000FFF713BE70BD704770477047704770478F
:101AD00070470000F8B5026804461068D168536981
:101AE00010F00F0F4FF0000554D003F0010601F481
:101AF000907737435FD0C20705D0CA0503D5226C63
:101B000042F001022264420705D5DA0703D0226CB5
:101B100042F002022264820705D5DA0703D0226C64
:101B200042F004022264020707D501F0200232438A
:101B300003D0226C42F008022264226C002A35D0C5
:101B4000800604D5880602D5204600F0E2FA206817
:101B50004069216CC0F3801001F008010143204668
:101B600025D000F0BEFA2068416949061BD54169BD
:101B700021F040014161A06BA8B158494163A06BBD
:101B8000FFF7DCF8002811D0A06B416B01B0BDE875
:101B9000F040084783060ED58B060CD52046BDE8DD
:101BA000F84000F0B6BA2046FFF792FFF8BDFFF705
:101BB0008FFF2564F8BD266B2023012E52D1C60667
:101BC00050D5CE064ED5106850680090506940063A
:101BD0002AD5A16B086840680004000CEAD0A68DE5
:101BE0008642E7D9E0858869202818D0D06820F49B
:101BF0008070D0602068416921F001014161206856
:101C0000416921F04001416184F83E30256320683C
:101C1000C16821F01001C160A06BFFF76BF8A08DC7
:101C2000E18D401A81B219E0A08DE18D401A81B298
:101C3000E08D0028BED00029BCD0D06820F4907080
:101C4000D0602068426922F00102426184F83E308F
:101C500025632068C26822F01002C2602046FFF7A8
:101C600036FFF8BD05062BD50D0629D594F83D00A5
:101C70002128F6D1A068B0F5805F01D12069B0B10C
:101C8000206A411C2162216800784860E08C401E77
:101C90000004000CE084E4D12068C16821F08001D8
:101CA000C1602068C16841F04001C160F8BD206A90
:101CB0000088C0F308005060206A801C2062E5E7BD
:101CC0004006F3D54806F1D5D168204621F0400101
:101CD000D16084F83D3000F0D0F8F8BDD320000882
:101CE00070B5040004D094F83D00002510B106E062
:101CF000012070BD84F83C50204600F023F82420D9
:101D000084F83D002068C16821F40051C16020467C
:101D100000F05AFA2068016921F4904101612068BD
:101D2000416921F02A0141612068C16841F40051F4
:101D3000C1602564202084F83D0084F83E00002026
:101D400070BD000030B585B0002400940194029469
:101D500003940068184988422BD11848C16941F49E
:101D60000031C161C16901F400310491816941F020
:101D7000040181618069124D00F004000490042088
:101D80000090022001900320039069462846FFF747
:101D90007FF80820CDE90004694628460294FFF741
:101DA00077F8002211462620FFF7DCF92620FFF7FE
:101DB000CBF905B030BD00000044004000100240E7
:101DC00000080140704700002DE9F843044690F8F0
:101DD0003D001F4616460D4620284CD1C5B1BEB168
:101DE00094F83C00012846D0012084F83C004FF0D4
:101DF0000008C4F84080212084F83D00FFF74EF928
:101E0000A6848146E684A068B0F5805F03D004E034
:101E10000120BDE8F883206928B12E465FF0000557
:101E200084F83C800EE00026FAE78021204600F08E
:101E300027FAA0B9AEB116F8010B21684860E08C12
:101E4000401EE084E08C4B464FF0000200970028D3
:101E5000EBD14FF04001204600F012FA30B10320E0
:101E6000D7E735F8020BC0F30800E6E7202084F836
:101E70003D000020CDE70220CBE77047FEE70000E1
:101E8000F0B585B000241C4800940194029403949A
:101E9000816941F020018161816901F02001049193
:101EA000816941F004018161816901F004010491BB
:101EB000816941F0100181618069104F00F01000CC
:101EC0004FF480560490002231463846FFF7E1F87F
:101ED000202001258DE8310069463846FEF7D8FFFD
:101EE0000220CDE90240CDE9006569463846FEF79B
:101EF000CFFF05B0F0BD000000100240001001400F
:101F000010B586B0002417480094019402940394FD
:101F100004944FF080410594C0E900144FF6FF711E
:101F2000C0E9024104618461FFF71EFC08B172B68A
:101F3000FEE74FF40050CDE90004029469460948D9
:101F40000394FFF7A1FC08B172B6FEE7049404A95C
:101F500004480594FFF7CAFB002801D072B6FEE7DB
:101F600006B010BD20000020FEE7FEE77047704776
:101F7000FFF79AB830B58FB028216846FEF7EDF923
:101F800014210AA8FEF7E9F901210804CDE900109F
:101F90000024029402250491CDE90750C000099065
:101FA0006846FFF7FDF908B172B6FEE70F200A9008
:101FB000CDE90B540D9401210AA80E94FFF704F902
:101FC000002801D072B6FEE70FB030BD70470000A8
:101FD0000148FFF7C5BC000020000020F0B50268F2
:101FE0001C4B1D4D1D4E1E4F1E4C4FF0804C9842F9
:101FF00009D0A04207D0604505D0A84203D0B04226
:1020000001D0B84204D122F0700E4A6842EA0E02B2
:10201000984209D0A04207D0604505D0A84203D01D
:10202000B04201D0B84203D122F44075CA682A43B5
:102030004D6922F080022A4302608A68C2620A68FF
:102040008262984201D0A04201D109690163012155
:102050004161F0BD002C0140000400400008004038
:10206000000C00400034014010B5846842EA0322AD
:1020700024F47F440A432243826010BD826822F028
:1020800070020A4342F007018160704710B5036A8D
:10209000046A24F001040462846924F0F00444EA30
:1020A000021423F00A020A438461026210BD10B5D3
:1020B000036A23F0100303628369046A23F4704304
:1020C00043EA023224F0A00343EA01118261016273
:1020D00010BD10B5406A0021C185C184FFF7F8FC2E
:1020E00010BD0168CA6822F49072CA6001684A692A
:1020F00022F001024A61016B012904D10168CA681A
:1021000022F01002CA60202180F83E1000210163F5
:10211000704708B590F83E10222901D0022008BD72
:1021200082684FF480539A4201D1016921B1816ADA
:102130009A421BD04AB10AE00268816A5268C2F32F
:1021400008020A80816A891C08E0026972B102688B
:10215000526802F07F020A70816A491C8162C18D57
:10216000491E0904090CC18503D019E002685268B0
:10217000F1E70168CA6822F02002CA600168CA68F3
:1021800022F48072CA6001684A6922F001024A6141
:10219000202180F83E10016B012903D0FFF712FEC9
:1021A000002008BD002101630168CA6822F0100206
:1021B000CA6001680A68D20602D50A6849680091B7
:1021C000818DFFF784FCEBE770B504460068016978
:1021D000E26821F44051114301612169A06808437C
:1021E000616908432168CA6841F20C639A4302435B
:1021F000CA6020684169A26921F4407111434161BC
:102200001E492068884202D1FFF784F801E0FFF7F9
:1022100071F800EBC00101EB0012606864218000DE
:10222000B2FBF0F3B3FBF1F36FF018067343B2FBAC
:10223000F0F5B2FBF0F605EB8305322303EB051551
:10224000B5FBF1F5B6FBF1F605F0F00505EB06156B
:10225000B2FBF0F6B2FBF0F0B0FBF1F06FF0180259
:10226000504306EB800003EB0010B0FBF1F0216857
:1022700000F00F002844886070BD00000038014065
:102280002DE9F041984617460E460446069D1DE08E
:10229000681C1BD02DB1FEF701FFA0EB0800A8427F
:1022A00014D92068C16821F4D071C16020684169E7
:1022B00021F001014161202084F83D0084F83E00B6
:1022C000002084F83C000320BDE8F081206800680D
:1022D00036EA000004D00020B842D9D00020F3E74D
:1022E0000120F9E70148FFF7F5BB00006800002076
:1022F000FEE70907090E002804DB00F1E02080F862
:102300000014704700F00F0000F1E02080F8141D69
:102310007047000010B5044605A0FDF7FFFF82B22C
:102320004FF6FF7302A10448FFF74EFD204610BD93
:10233000313131310000000068000020FEF7BCFEA2
:10234000FFF718FEFFF79CFDFFF7DAFD2648254949
:102350000C2201604FF4E131416000218160C160D5
:10236000C0E904128161C161FFF7BAFC08B172B61D
:10237000FEE71D484838FFF755FA1CA0FDF752FF4D
:10238000194F214E214C483F4FF4805520212046C3
:10239000FEF77AFE0028F9D10A20FEF767FD20211A
:1023A0002046FEF771FEB0B9012229462046FEF70D
:1023B00070FE0120FEF75AFD002229462046FEF756
:1023C00068FE0120FEF752FD3868406AC1B23170E4
:1023D0000FA0FDF727FF20212046FEF755FE00281D
:1023E000F9D0D3E7004400406800002054696D65CF
:1023F0007220636F756E742066756E6374696F6E9C
:1024000020746573743A0000000000200010014041
:10241000636F756E74203D2025642E0A0000000055
:102420000000000000000000010203040607080984
:1024300000000000010203043A7474003A7474004E
:102440003A7474006424000800000020200000009A
:102450006C0100088424000820000020E807000028
:1024600088010008000000000100000010000000CA
:10247000000000000024F400000000000000000044
:042480000000000058
:0400000508000131BD
:00000001FF
